{
  "transactions": [
    {
      "hash": "0x2123ad4998d4fcbe7efc9d8c5c91e4159b5a02a99129c06c6ac463ba9e80404e",
      "transactionType": "CREATE",
      "contractName": "MockToken",
      "contractAddress": "0x30fa80fb0d4d0c411f35961079c1fc58b3af4f9a",
      "function": null,
      "arguments": null,
      "transaction": {
        "from": "0xe62a4b251d4e8fac52b08cc2b88f091548426e4c",
        "gas": "0x14889f",
        "value": "0x0",
        "input": "0x60806040523480156200001157600080fd5b506040518060400160405280600f81526020016e2320a926a922aba0a9222a27a5a2a760891b8152506040518060400160405280600381526020016211949560ea1b81525081600390805190602001906200006e9291906200028c565b508051620000849060049060208401906200028c565b50506005805460ff19166012179055506000620000a062000112565b60058054610100600160a81b0319166101006001600160a01b03841690810291909117909155604051919250906000907f8be0079c531659141344cd1fd0a4f28419497f9722a3daafe3b4186f6b6457e0908290a3506200010c3369d3c21bcecceda100000062000116565b62000338565b3390565b6001600160a01b03821662000172576040805162461bcd60e51b815260206004820152601f60248201527f45524332303a206d696e7420746f20746865207a65726f206164647265737300604482015290519081900360640190fd5b620001806000838362000225565b6200019c816002546200022a60201b620009f01790919060201c565b6002556001600160a01b03821660009081526020818152604090912054620001cf918390620009f06200022a821b17901c565b6001600160a01b0383166000818152602081815260408083209490945583518581529351929391927fddf252ad1be2c89b69c2b068fc378daa952ba7f163c4a11628f55a4df523b3ef9281900390910190a35050565b505050565b60008282018381101562000285576040805162461bcd60e51b815260206004820152601b60248201527f536166654d6174683a206164646974696f6e206f766572666c6f770000000000604482015290519081900360640190fd5b9392505050565b828054600181600116156101000203166002900490600052602060002090601f016020900481019282620002c457600085556200030f565b82601f10620002df57805160ff19168380011785556200030f565b828001600101855582156200030f579182015b828111156200030f578251825591602001919060010190620002f2565b506200031d92915062000321565b5090565b5b808211156200031d576000815560010162000322565b610f9980620003486000396000f3fe608060405234801561001057600080fd5b50600436106100ea5760003560e01c8063715018a61161008c578063a457c2d711610066578063a457c2d7146102e3578063a9059cbb1461031c578063dd62ed3e14610355578063f2fde38b14610390576100ea565b8063715018a6146102a05780638da5cb5b146102aa57806395d89b41146102db576100ea565b806323b872dd116100c857806323b872dd146101d3578063313ce56714610216578063395093511461023457806370a082311461026d576100ea565b806306fdde03146100ef578063095ea7b31461016c57806318160ddd146101b9575b600080fd5b6100f76103c3565b6040805160208082528351818301528351919283929083019185019080838360005b83811015610131578181015183820152602001610119565b50505050905090810190601f16801561015e5780820380516001836020036101000a031916815260200191505b509250505060405180910390f35b6101a56004803603604081101561018257600080fd5b5073ffffffffffffffffffffffffffffffffffffffff8135169060200135610477565b604080519115158252519081900360200190f35b6101c1610494565b60408051918252519081900360200190f35b6101a5600480360360608110156101e957600080fd5b5073ffffffffffffffffffffffffffffffffffffffff81358116916020810135909116906040013561049a565b61021e61053b565b6040805160ff9092168252519081900360200190f35b6101a56004803603604081101561024a57600080fd5b5073ffffffffffffffffffffffffffffffffffffffff8135169060200135610544565b6101c16004803603602081101561028357600080fd5b503573ffffffffffffffffffffffffffffffffffffffff1661059f565b6102a86105c7565b005b6102b26106e3565b6040805173ffffffffffffffffffffffffffffffffffffffff9092168252519081900360200190f35b6100f7610704565b6101a5600480360360408110156102f957600080fd5b5073ffffffffffffffffffffffffffffffffffffffff8135169060200135610783565b6101a56004803603604081101561033257600080fd5b5073ffffffffffffffffffffffffffffffffffffffff81351690602001356107f8565b6101c16004803603604081101561036b57600080fd5b5073ffffffffffffffffffffffffffffffffffffffff8135811691602001351661080c565b6102a8600480360360208110156103a657600080fd5b503573ffffffffffffffffffffffffffffffffffffffff16610844565b60038054604080516020601f60027fffffffffffffffffffffffffffffffffffffffffffffffffffffffffffffffff61010060018816150201909516949094049384018190048102820181019092528281526060939092909183018282801561046d5780601f106104425761010080835404028352916020019161046d565b820191906000526020600020905b81548152906001019060200180831161045057829003601f168201915b5050505050905090565b600061048b610484610a6b565b8484610a6f565b50600192915050565b60025490565b60006104a7848484610bb6565b610531846104b3610a6b565b61052c85604051806060016040528060288152602001610ece6028913973ffffffffffffffffffffffffffffffffffffffff8a166000908152600160205260408120906104fe610a6b565b73ffffffffffffffffffffffffffffffffffffffff1681526020810191909152604001600020549190610d86565b610a6f565b5060019392505050565b60055460ff1690565b600061048b610551610a6b565b8461052c8560016000610562610a6b565b73ffffffffffffffffffffffffffffffffffffffff908116825260208083019390935260409182016000908120918c1681529252902054906109f0565b73ffffffffffffffffffffffffffffffffffffffff1660009081526020819052604090205490565b6105cf610a6b565b73ffffffffffffffffffffffffffffffffffffffff166105ed6106e3565b73ffffffffffffffffffffffffffffffffffffffff161461066f57604080517f08c379a000000000000000000000000000000000000000000000000000000000815260206004820181905260248201527f4f776e61626c653a2063616c6c6572206973206e6f7420746865206f776e6572604482015290519081900360640190fd5b600554604051600091610100900473ffffffffffffffffffffffffffffffffffffffff16907f8be0079c531659141344cd1fd0a4f28419497f9722a3daafe3b4186f6b6457e0908390a3600580547fffffffffffffffffffffff0000000000000000000000000000000000000000ff169055565b600554610100900473ffffffffffffffffffffffffffffffffffffffff1690565b60048054604080516020601f60027fffffffffffffffffffffffffffffffffffffffffffffffffffffffffffffffff61010060018816150201909516949094049384018190048102820181019092528281526060939092909183018282801561046d5780601f106104425761010080835404028352916020019161046d565b600061048b610790610a6b565b8461052c85604051806060016040528060258152602001610f3f60259139600160006107ba610a6b565b73ffffffffffffffffffffffffffffffffffffffff908116825260208083019390935260409182016000908120918d16815292529020549190610d86565b600061048b610805610a6b565b8484610bb6565b73ffffffffffffffffffffffffffffffffffffffff918216600090815260016020908152604080832093909416825291909152205490565b61084c610a6b565b73ffffffffffffffffffffffffffffffffffffffff1661086a6106e3565b73ffffffffffffffffffffffffffffffffffffffff16146108ec57604080517f08c379a000000000000000000000000000000000000000000000000000000000815260206004820181905260248201527f4f776e61626c653a2063616c6c6572206973206e6f7420746865206f776e6572604482015290519081900360640190fd5b73ffffffffffffffffffffffffffffffffffffffff8116610958576040517f08c379a0000000000000000000000000000000000000000000000000000000008152600401808060200182810382526026815260200180610e606026913960400191505060405180910390fd5b60055460405173ffffffffffffffffffffffffffffffffffffffff80841692610100900416907f8be0079c531659141344cd1fd0a4f28419497f9722a3daafe3b4186f6b6457e090600090a36005805473ffffffffffffffffffffffffffffffffffffffff909216610100027fffffffffffffffffffffff0000000000000000000000000000000000000000ff909216919091179055565b600082820183811015610a6457604080517f08c379a000000000000000000000000000000000000000000000000000000000815260206004820152601b60248201527f536166654d6174683a206164646974696f6e206f766572666c6f770000000000604482015290519081900360640190fd5b9392505050565b3390565b73ffffffffffffffffffffffffffffffffffffffff8316610adb576040517f08c379a0000000000000000000000000000000000000000000000000000000008152600401808060200182810382526024815260200180610f1b6024913960400191505060405180910390fd5b73ffffffffffffffffffffffffffffffffffffffff8216610b47576040517f08c379a0000000000000000000000000000000000000000000000000000000008152600401808060200182810382526022815260200180610e866022913960400191505060405180910390fd5b73ffffffffffffffffffffffffffffffffffffffff808416600081815260016020908152604080832094871680845294825291829020859055815185815291517f8c5be1e5ebec7d5bd14f71427d1e84f3dd0314c0f7b2291e5b200ac8c7c3b9259281900390910190a3505050565b73ffffffffffffffffffffffffffffffffffffffff8316610c22576040517f08c379a0000000000000000000000000000000000000000000000000000000008152600401808060200182810382526025815260200180610ef66025913960400191505060405180910390fd5b73ffffffffffffffffffffffffffffffffffffffff8216610c8e576040517f08c379a0000000000000000000000000000000000000000000000000000000008152600401808060200182810382526023815260200180610e3d6023913960400191505060405180910390fd5b610c99838383610e37565b610ce381604051806060016040528060268152602001610ea86026913973ffffffffffffffffffffffffffffffffffffffff86166000908152602081905260409020549190610d86565b73ffffffffffffffffffffffffffffffffffffffff8085166000908152602081905260408082209390935590841681522054610d1f90826109f0565b73ffffffffffffffffffffffffffffffffffffffff8084166000818152602081815260409182902094909455805185815290519193928716927fddf252ad1be2c89b69c2b068fc378daa952ba7f163c4a11628f55a4df523b3ef92918290030190a3505050565b60008184841115610e2f576040517f08c379a00000000000000000000000000000000000000000000000000000000081526004018080602001828103825283818151815260200191508051906020019080838360005b83811015610df4578181015183820152602001610ddc565b50505050905090810190601f168015610e215780820380516001836020036101000a031916815260200191505b509250505060405180910390fd5b505050900390565b50505056fe45524332303a207472616e7366657220746f20746865207a65726f20616464726573734f776e61626c653a206e6577206f776e657220697320746865207a65726f206164647265737345524332303a20617070726f766520746f20746865207a65726f206164647265737345524332303a207472616e7366657220616d6f756e7420657863656564732062616c616e636545524332303a207472616e7366657220616d6f756e74206578636565647320616c6c6f77616e636545524332303a207472616e736665722066726f6d20746865207a65726f206164647265737345524332303a20617070726f76652066726f6d20746865207a65726f206164647265737345524332303a2064656372656173656420616c6c6f77616e63652062656c6f77207a65726fa26469706673582212201bdf101d4ad158bb6577e2e5e8cceafe16b7c758adbc7b7493a89703ea310b9464736f6c63430007060033",
        "nonce": "0x2c1",
        "chainId": "0x92"
      },
      "additionalContracts": [],
      "isFixedGasLimit": false
    },
    {
      "hash": "0x6af99c50de7d935abaafdeeac140b12819f3e86fb9da31ecc54a3d839060c05d",
      "transactionType": "CALL",
      "contractName": "MockToken",
      "contractAddress": "0x30fa80fb0d4d0c411f35961079c1fc58b3af4f9a",
      "function": "approve(address,uint256)",
      "arguments": [
        "0xaecb3ab92674a8D660a91117373AC5aE2097FF33",
        "1000000000000000000000000"
      ],
      "transaction": {
        "from": "0xe62a4b251d4e8fac52b08cc2b88f091548426e4c",
        "to": "0x30fa80fb0d4d0c411f35961079c1fc58b3af4f9a",
        "gas": "0xfbb2",
        "value": "0x0",
        "input": "0x095ea7b3000000000000000000000000aecb3ab92674a8d660a91117373ac5ae2097ff3300000000000000000000000000000000000000000000d3c21bcecceda1000000",
        "nonce": "0x2c2",
        "chainId": "0x92"
      },
      "additionalContracts": [],
      "isFixedGasLimit": false
    },
    {
      "hash": "0xeba48dce0a568a7bd8c44e4540da6cd8e37a8d9b9fb5a685844a7fd3a36046b6",
      "transactionType": "CALL",
      "contractName": null,
      "contractAddress": "0xaecb3ab92674a8d660a91117373ac5ae2097ff33",
      "function": "createIncentive((address,address,uint256,uint256,uint256,address),uint256)",
      "arguments": [
        "(0x30fA80fB0D4D0c411f35961079C1fc58B3af4F9A, 0xFb0a4f34C80De8Ee5e7eae8dbbAEfe23508fAD6B, 1747293252, 1748157152, 43200, 0xe62A4B251d4e8fac52B08Cc2b88F091548426e4C)",
        "10000000000000000000000"
      ],
      "transaction": {
        "from": "0xe62a4b251d4e8fac52b08cc2b88f091548426e4c",
        "to": "0xaecb3ab92674a8d660a91117373ac5ae2097ff33",
        "gas": "0x1f940",
        "value": "0x0",
        "input": "0x8d4502e700000000000000000000000030fa80fb0d4d0c411f35961079c1fc58b3af4f9a000000000000000000000000fb0a4f34c80de8ee5e7eae8dbbaefe23508fad6b0000000000000000000000000000000000000000000000000000000068259444000000000000000000000000000000000000000000000000000000006832c2e0000000000000000000000000000000000000000000000000000000000000a8c0000000000000000000000000e62a4b251d4e8fac52b08cc2b88f091548426e4c00000000000000000000000000000000000000000000021e19e0c9bab2400000",
        "nonce": "0x2c3",
        "chainId": "0x92"
      },
      "additionalContracts": [],
      "isFixedGasLimit": false
    }
  ],
  "receipts": [
    {
      "status": "0x1",
      "cumulativeGasUsed": "0x251482",
      "logs": [
        {
          "address": "0x30fa80fb0d4d0c411f35961079c1fc58b3af4f9a",
          "topics": [
            "0x8be0079c531659141344cd1fd0a4f28419497f9722a3daafe3b4186f6b6457e0",
            "0x0000000000000000000000000000000000000000000000000000000000000000",
            "0x000000000000000000000000e62a4b251d4e8fac52b08cc2b88f091548426e4c"
          ],
          "data": "0x",
          "blockHash": "0xcb81ee48ec510ea8af3488cc41e1da9a2ea9a024f038b0637d36b3a95ed5e781",
          "blockNumber": "0x19ad240",
          "transactionHash": "0x2123ad4998d4fcbe7efc9d8c5c91e4159b5a02a99129c06c6ac463ba9e80404e",
          "transactionIndex": "0x4",
          "logIndex": "0x14",
          "removed": false
        },
        {
          "address": "0x30fa80fb0d4d0c411f35961079c1fc58b3af4f9a",
          "topics": [
            "0xddf252ad1be2c89b69c2b068fc378daa952ba7f163c4a11628f55a4df523b3ef",
            "0x0000000000000000000000000000000000000000000000000000000000000000",
            "0x000000000000000000000000e62a4b251d4e8fac52b08cc2b88f091548426e4c"
          ],
          "data": "0x00000000000000000000000000000000000000000000d3c21bcecceda1000000",
          "blockHash": "0xcb81ee48ec510ea8af3488cc41e1da9a2ea9a024f038b0637d36b3a95ed5e781",
          "blockNumber": "0x19ad240",
          "transactionHash": "0x2123ad4998d4fcbe7efc9d8c5c91e4159b5a02a99129c06c6ac463ba9e80404e",
          "transactionIndex": "0x4",
          "logIndex": "0x15",
          "removed": false
        }
      ],
      "logsBloom": "0x02000000000000000000000000000000000000000000000000800000000000000000000000000000000000000020000000000000000000000000000000000000000000000000000000020008000000000001000000000000000000000000000000400000020000000000000000000800001000000000000000000010000000400000000000000000000000000000000000000000000000000000000000000000000000000000000000000000000000000000000000000000000000000000000000000002000000000000000000000000000000000000000000000000000020000000000000000000000000000000000000000000000000000000400000000000",
      "type": "0x2",
      "transactionHash": "0x2123ad4998d4fcbe7efc9d8c5c91e4159b5a02a99129c06c6ac463ba9e80404e",
      "transactionIndex": "0x4",
      "blockHash": "0xcb81ee48ec510ea8af3488cc41e1da9a2ea9a024f038b0637d36b3a95ed5e781",
      "blockNumber": "0x19ad240",
      "gasUsed": "0x1057dc",
      "effectiveGasPrice": "0xba6381455",
      "from": "0xe62a4b251d4e8fac52b08cc2b88f091548426e4c",
      "to": null,
      "contractAddress": "0x30fa80fb0d4d0c411f35961079c1fc58b3af4f9a"
    },
    {
      "status": "0x1",
      "cumulativeGasUsed": "0x27eea0",
      "logs": [
        {
          "address": "0x30fa80fb0d4d0c411f35961079c1fc58b3af4f9a",
          "topics": [
            "0x8c5be1e5ebec7d5bd14f71427d1e84f3dd0314c0f7b2291e5b200ac8c7c3b925",
            "0x000000000000000000000000e62a4b251d4e8fac52b08cc2b88f091548426e4c",
            "0x000000000000000000000000aecb3ab92674a8d660a91117373ac5ae2097ff33"
          ],
          "data": "0x00000000000000000000000000000000000000000000d3c21bcecceda1000000",
          "blockHash": "0xcb81ee48ec510ea8af3488cc41e1da9a2ea9a024f038b0637d36b3a95ed5e781",
          "blockNumber": "0x19ad240",
          "transactionHash": "0x6af99c50de7d935abaafdeeac140b12819f3e86fb9da31ecc54a3d839060c05d",
          "transactionIndex": "0x6",
          "logIndex": "0x1c",
          "removed": false
        }
      ],
      "logsBloom": "0x02000000000000000000000000000000000000000000000000000000000000000000000000000000000000000020000000000000000000000000000000200000000000000000000000020000000000000000000000000000000000000000000000400000000000000000000000000000001400000000000000000000000000000000000000000000000000000000000000000000000000000000000000000000020000000000800000000000000000000000000000000000000000008000000000000000000000000000000000000000000000000000000000000000000000000010000000000000000000000000000000000000000000000000400000000000",
      "type": "0x2",
      "transactionHash": "0x6af99c50de7d935abaafdeeac140b12819f3e86fb9da31ecc54a3d839060c05d",
      "transactionIndex": "0x6",
      "blockHash": "0xcb81ee48ec510ea8af3488cc41e1da9a2ea9a024f038b0637d36b3a95ed5e781",
      "blockNumber": "0x19ad240",
      "gasUsed": "0xbb71",
      "effectiveGasPrice": "0xba6381455",
      "from": "0xe62a4b251d4e8fac52b08cc2b88f091548426e4c",
      "to": "0x30fa80fb0d4d0c411f35961079c1fc58b3af4f9a",
      "contractAddress": null
    },
    {
      "status": "0x1",
      "cumulativeGasUsed": "0x42d786",
      "logs": [
        {
          "address": "0x30fa80fb0d4d0c411f35961079c1fc58b3af4f9a",
          "topics": [
            "0xddf252ad1be2c89b69c2b068fc378daa952ba7f163c4a11628f55a4df523b3ef",
            "0x000000000000000000000000e62a4b251d4e8fac52b08cc2b88f091548426e4c",
            "0x000000000000000000000000aecb3ab92674a8d660a91117373ac5ae2097ff33"
          ],
          "data": "0x00000000000000000000000000000000000000000000021e19e0c9bab2400000",
          "blockHash": "0xcb81ee48ec510ea8af3488cc41e1da9a2ea9a024f038b0637d36b3a95ed5e781",
          "blockNumber": "0x19ad240",
          "transactionHash": "0xeba48dce0a568a7bd8c44e4540da6cd8e37a8d9b9fb5a685844a7fd3a36046b6",
          "transactionIndex": "0xa",
          "logIndex": "0x35",
          "removed": false
        },
        {
          "address": "0x30fa80fb0d4d0c411f35961079c1fc58b3af4f9a",
          "topics": [
            "0x8c5be1e5ebec7d5bd14f71427d1e84f3dd0314c0f7b2291e5b200ac8c7c3b925",
            "0x000000000000000000000000e62a4b251d4e8fac52b08cc2b88f091548426e4c",
            "0x000000000000000000000000aecb3ab92674a8d660a91117373ac5ae2097ff33"
          ],
          "data": "0x00000000000000000000000000000000000000000000d1a401ee0332eec00000",
          "blockHash": "0xcb81ee48ec510ea8af3488cc41e1da9a2ea9a024f038b0637d36b3a95ed5e781",
          "blockNumber": "0x19ad240",
          "transactionHash": "0xeba48dce0a568a7bd8c44e4540da6cd8e37a8d9b9fb5a685844a7fd3a36046b6",
          "transactionIndex": "0xa",
          "logIndex": "0x36",
          "removed": false
        },
        {
          "address": "0xaecb3ab92674a8d660a91117373ac5ae2097ff33",
          "topics": [
            "0xbf3557808e8f91a1f15de4b9e7a18bd85d4de65177cf09bf8666404ec204f38b",
            "0x00000000000000000000000030fa80fb0d4d0c411f35961079c1fc58b3af4f9a",
            "0x000000000000000000000000fb0a4f34c80de8ee5e7eae8dbbaefe23508fad6b"
          ],
          "data": "0x0000000000000000000000000000000000000000000000000000000068259444000000000000000000000000000000000000000000000000000000006832c2e0000000000000000000000000000000000000000000000000000000000000a8c0000000000000000000000000e62a4b251d4e8fac52b08cc2b88f091548426e4c00000000000000000000000000000000000000000000021e19e0c9bab2400000",
          "blockHash": "0xcb81ee48ec510ea8af3488cc41e1da9a2ea9a024f038b0637d36b3a95ed5e781",
          "blockNumber": "0x19ad240",
          "transactionHash": "0xeba48dce0a568a7bd8c44e4540da6cd8e37a8d9b9fb5a685844a7fd3a36046b6",
          "transactionIndex": "0xa",
          "logIndex": "0x37",
          "removed": false
        }
      ],
      "logsBloom": "0x020000000000040000000000000000000000000000000000000000000000000000000000000000000000000000200000000000000000000000000003002000000000008000000400000200080000000000000000000000000000000000000000004000000000000000000000000000000014000000000000000000100000001000000000000000000000000000000000000000000000000000000000000000000200000000008000000000000000000000800000000000000000000080000000000000020000000000000000000000000000000000000000000000000000a0000010000000000000004000200000000000000000000000000000400080000000",
      "type": "0x2",
      "transactionHash": "0xeba48dce0a568a7bd8c44e4540da6cd8e37a8d9b9fb5a685844a7fd3a36046b6",
      "transactionIndex": "0xa",
      "blockHash": "0xcb81ee48ec510ea8af3488cc41e1da9a2ea9a024f038b0637d36b3a95ed5e781",
      "blockNumber": "0x19ad240",
      "gasUsed": "0x17189",
      "effectiveGasPrice": "0xba6381455",
      "from": "0xe62a4b251d4e8fac52b08cc2b88f091548426e4c",
      "to": "0xaecb3ab92674a8d660a91117373ac5ae2097ff33",
      "contractAddress": null
    }
  ],
  "libraries": [],
  "pending": [],
  "returns": {},
  "timestamp": 1747293175,
  "chain": 146,
  "commit": "eca1cf1"
}