{
  "transactions": [
    {
      "hash": "0x7fd5ab1f811d1e8e09f929e7eb6940b5c03e82c65a4547f8644bececff15527f",
      "transactionType": "CALL",
      "contractName": null,
      "contractAddress": "0xeb877616063cbc2df98df8ebc984fba5aae7d60f",
      "function": "stakeToken((address,address,uint256,uint256,uint256,address),uint256)",
      "arguments": [
        "(0x9Ca659c98796aBdf76Ee07dE22371A7eF429D5f4, 0x2619c1f283934F997023082b89b57B7F633C3169, 1737802657, 1738666647, 43200, 0xe62A4B251d4e8fac52B08Cc2b88F091548426e4C)",
        "34911"
      ],
      "transaction": {
        "from": "0xe62a4b251d4e8fac52b08cc2b88f091548426e4c",
        "to": "0xeb877616063cbc2df98df8ebc984fba5aae7d60f",
        "gas": "0x2a32e",
        "value": "0x0",
        "input": "0x8bf4d3450000000000000000000000009ca659c98796abdf76ee07de22371a7ef429d5f40000000000000000000000002619c1f283934f997023082b89b57b7f633c3169000000000000000000000000000000000000000000000000000000006794c3a10000000000000000000000000000000000000000000000000000000067a1f297000000000000000000000000000000000000000000000000000000000000a8c0000000000000000000000000e62a4b251d4e8fac52b08cc2b88f091548426e4c000000000000000000000000000000000000000000000000000000000000885f",
        "nonce": "0x234",
        "chainId": "0x138d4"
      },
      "additionalContracts": [],
      "isFixedGasLimit": false
    }
  ],
  "receipts": [
    {
      "status": "0x1",
      "cumulativeGasUsed": "0x92b702",
      "logs": [
        {
          "address": "0xeb877616063cbc2df98df8ebc984fba5aae7d60f",
          "topics": [
            "0x3fe90ccd0a34e28f2b4b7a1e8323415ed9dd595f4eec5dfd461d18c2df336dbd",
            "0x000000000000000000000000000000000000000000000000000000000000885f",
            "0x4fecf94378250a9242344101cc9e0b070c9ca33022cb25339fcd364d85c8b55b"
          ],
          "data": "0x000000000000000000000000000000000000000000000000e896aaef42652cbc",
          "blockHash": "0x3f08077a9ad34b087494dbc77c18d7531ada07ea864bb7dd58ed4863a2a253f2",
          "blockNumber": "0x94cadc",
          "blockTimestamp": "0x6794c431",
          "transactionHash": "0x7fd5ab1f811d1e8e09f929e7eb6940b5c03e82c65a4547f8644bececff15527f",
          "transactionIndex": "0x43",
          "logIndex": "0x120",
          "removed": false
        }
      ],
      "logsBloom": "0x00000000000000000000000000000008000000000080000000000000004000000000000000000000000000000000000000000000000000000000000000000000000000000000000000000000000000000000000000000000000000000000000000000000000000040000000000000000000000000000000000000002002000000000000000000000000000000080000000000000000000004000000000000000000000000000000000000010000000000000000000000000002000000000000000000000000000000000000000000000000000000000000000000004000000000000000000000000000000000000004000000000000000000000000000000000",
      "type": "0x2",
      "transactionHash": "0x7fd5ab1f811d1e8e09f929e7eb6940b5c03e82c65a4547f8644bececff15527f",
      "transactionIndex": "0x43",
      "blockHash": "0x3f08077a9ad34b087494dbc77c18d7531ada07ea864bb7dd58ed4863a2a253f2",
      "blockNumber": "0x94cadc",
      "gasUsed": "0x1cdaa",
      "effectiveGasPrice": "0xf4258",
      "from": "0xe62a4b251d4e8fac52b08cc2b88f091548426e4c",
      "to": "0xeb877616063cbc2df98df8ebc984fba5aae7d60f",
      "contractAddress": null
    }
  ],
  "libraries": [],
  "pending": [],
  "returns": {},
  "timestamp": 1737802801,
  "chain": 80084,
  "commit": "8ce70a0"
}